{
  "transactions": [
    {
      "hash": "0xff330152838eda76eb43baed3eec076b1ec14f61596388341f28f7a11a24bd8f",
      "transactionType": "CALL",
      "contractName": null,
      "contractAddress": "0x8aea284278c30a1093b97118e11a7b502ec3f7f0",
      "function": "mint(address)",
      "arguments": [
        "0x4704A93F799fa0E849e5223a14C7c7C644E358bE"
      ],
      "transaction": {
        "from": "0x4704a93f799fa0e849e5223a14c7c7c644e358be",
        "to": "0x8aea284278c30a1093b97118e11a7b502ec3f7f0",
        "gas": "0x1fa3a",
        "value": "0x0",
        "input": "0x6a6278420000000000000000000000004704a93f799fa0e849e5223a14c7c7c644e358be",
        "nonce": "0x3",
        "chainId": "0xaa36a7"
      },
      "additionalContracts": [],
      "isFixedGasLimit": false
    }
  ],
  "receipts": [
    {
      "status": "0x1",
      "cumulativeGasUsed": "0x66031a",
      "logs": [
        {
          "address": "0x8aea284278c30a1093b97118e11a7b502ec3f7f0",
          "topics": [
            "0xddf252ad1be2c89b69c2b068fc378daa952ba7f163c4a11628f55a4df523b3ef",
            "0x0000000000000000000000000000000000000000000000000000000000000000",
            "0x0000000000000000000000004704a93f799fa0e849e5223a14c7c7c644e358be",
            "0x0000000000000000000000000000000000000000000000000000000000000001"
          ],
          "data": "0x",
          "blockHash": "0xb6ee7574cb5e699b0cd564f82775da1d6941c5954e087eb0515f208edfcc76f2",
          "blockNumber": "0x9db91c",
          "blockTimestamp": "0x699f78cc",
          "transactionHash": "0xff330152838eda76eb43baed3eec076b1ec14f61596388341f28f7a11a24bd8f",
          "transactionIndex": "0x48",
          "logIndex": "0x6e",
          "removed": false
        }
      ],
      "logsBloom": "0x00000000000000000000000000000000000000000000000000000000000000000000000000000000000000000000000000000000000200002000000000040000000000000000000000000008010000000000000000040000000000000000000000000000020000000000000000000800000000000040000000000010000000000000000000000000000000000000000000000000000000000000000000000000000000000800000000000000000000000000000000000000000000000000000000000002000000000000000000000000000000000000000000000000000060000000000100000000000000000000000000000000000000000000000000000000",
      "type": "0x2",
      "transactionHash": "0xff330152838eda76eb43baed3eec076b1ec14f61596388341f28f7a11a24bd8f",
      "transactionIndex": "0x48",
      "blockHash": "0xb6ee7574cb5e699b0cd564f82775da1d6941c5954e087eb0515f208edfcc76f2",
      "blockNumber": "0x9db91c",
      "gasUsed": "0x16e80",
      "effectiveGasPrice": "0xf4304",
      "from": "0x4704a93f799fa0e849e5223a14c7c7c644e358be",
      "to": "0x8aea284278c30a1093b97118e11a7b502ec3f7f0",
      "contractAddress": null
    }
  ],
  "libraries": [],
  "pending": [],
  "returns": {},
  "timestamp": 1772058830410,
  "chain": 11155111,
  "commit": "6b31157"
}